{
  "contractName": "BucketsClubFrontNine",
  "abi": [
    {
      "inputs": [
        {
          "internalType": "string",
          "name": "baseURI",
          "type": "string"
        },
        {
          "internalType": "uint256",
          "name": "maxBatchSize_",
          "type": "uint256"
        },
        {
          "internalType": "uint256",
          "name": "collectionSize_",
          "type": "uint256"
        }
      ],
      "stateMutability": "nonpayable",
      "type": "constructor"
    },
    {
      "anonymous": false,
      "inputs": [
        {
          "indexed": true,
          "internalType": "address",
          "name": "owner",
          "type": "address"
        },
        {
          "indexed": true,
          "internalType": "address",
          "name": "approved",
          "type": "address"
        },
        {
          "indexed": true,
          "internalType": "uint256",
          "name": "tokenId",
          "type": "uint256"
        }
      ],
      "name": "Approval",
      "type": "event"
    },
    {
      "anonymous": false,
      "inputs": [
        {
          "indexed": true,
          "internalType": "address",
          "name": "owner",
          "type": "address"
        },
        {
          "indexed": true,
          "internalType": "address",
          "name": "operator",
          "type": "address"
        },
        {
          "indexed": false,
          "internalType": "bool",
          "name": "approved",
          "type": "bool"
        }
      ],
      "name": "ApprovalForAll",
      "type": "event"
    },
    {
      "anonymous": false,
      "inputs": [
        {
          "indexed": false,
          "internalType": "uint256",
          "name": "tokenId",
          "type": "uint256"
        },
        {
          "indexed": false,
          "internalType": "address",
          "name": "sender",
          "type": "address"
        }
      ],
      "name": "AssetMinted",
      "type": "event"
    },
    {
      "anonymous": false,
      "inputs": [
        {
          "indexed": true,
          "internalType": "address",
          "name": "previousOwner",
          "type": "address"
        },
        {
          "indexed": true,
          "internalType": "address",
          "name": "newOwner",
          "type": "address"
        }
      ],
      "name": "OwnershipTransferred",
      "type": "event"
    },
    {
      "anonymous": false,
      "inputs": [
        {
          "indexed": false,
          "internalType": "bool",
          "name": "isMintActive",
          "type": "bool"
        }
      ],
      "name": "SaleActivation",
      "type": "event"
    },
    {
      "anonymous": false,
      "inputs": [
        {
          "indexed": true,
          "internalType": "address",
          "name": "from",
          "type": "address"
        },
        {
          "indexed": true,
          "internalType": "address",
          "name": "to",
          "type": "address"
        },
        {
          "indexed": true,
          "internalType": "uint256",
          "name": "tokenId",
          "type": "uint256"
        }
      ],
      "name": "Transfer",
      "type": "event"
    },
    {
      "inputs": [],
      "name": "allowListMaxMint",
      "outputs": [
        {
          "internalType": "uint256",
          "name": "",
          "type": "uint256"
        }
      ],
      "stateMutability": "view",
      "type": "function"
    },
    {
      "inputs": [
        {
          "internalType": "address",
          "name": "to",
          "type": "address"
        },
        {
          "internalType": "uint256",
          "name": "tokenId",
          "type": "uint256"
        }
      ],
      "name": "approve",
      "outputs": [],
      "stateMutability": "nonpayable",
      "type": "function"
    },
    {
      "inputs": [
        {
          "internalType": "address",
          "name": "owner",
          "type": "address"
        }
      ],
      "name": "balanceOf",
      "outputs": [
        {
          "internalType": "uint256",
          "name": "",
          "type": "uint256"
        }
      ],
      "stateMutability": "view",
      "type": "function"
    },
    {
      "inputs": [
        {
          "internalType": "uint256",
          "name": "tokenId",
          "type": "uint256"
        }
      ],
      "name": "getApproved",
      "outputs": [
        {
          "internalType": "address",
          "name": "",
          "type": "address"
        }
      ],
      "stateMutability": "view",
      "type": "function"
    },
    {
      "inputs": [
        {
          "internalType": "address",
          "name": "owner",
          "type": "address"
        },
        {
          "internalType": "address",
          "name": "operator",
          "type": "address"
        }
      ],
      "name": "isApprovedForAll",
      "outputs": [
        {
          "internalType": "bool",
          "name": "",
          "type": "bool"
        }
      ],
      "stateMutability": "view",
      "type": "function"
    },
    {
      "inputs": [],
      "name": "isClosedMintForever",
      "outputs": [
        {
          "internalType": "bool",
          "name": "",
          "type": "bool"
        }
      ],
      "stateMutability": "view",
      "type": "function"
    },
    {
      "inputs": [],
      "name": "isMintActive",
      "outputs": [
        {
          "internalType": "bool",
          "name": "",
          "type": "bool"
        }
      ],
      "stateMutability": "view",
      "type": "function"
    },
    {
      "inputs": [],
      "name": "isPreSaleMintActive",
      "outputs": [
        {
          "internalType": "bool",
          "name": "",
          "type": "bool"
        }
      ],
      "stateMutability": "view",
      "type": "function"
    },
    {
      "inputs": [],
      "name": "isRaffleActive",
      "outputs": [
        {
          "internalType": "bool",
          "name": "",
          "type": "bool"
        }
      ],
      "stateMutability": "view",
      "type": "function"
    },
    {
      "inputs": [],
      "name": "isSellOpen",
      "outputs": [
        {
          "internalType": "bool",
          "name": "",
          "type": "bool"
        }
      ],
      "stateMutability": "view",
      "type": "function"
    },
    {
      "inputs": [],
      "name": "maxPerAddressDuringMint",
      "outputs": [
        {
          "internalType": "uint256",
          "name": "",
          "type": "uint256"
        }
      ],
      "stateMutability": "view",
      "type": "function"
    },
    {
      "inputs": [],
      "name": "maximumAllowedTokensPerPurchase",
      "outputs": [
        {
          "internalType": "uint256",
          "name": "",
          "type": "uint256"
        }
      ],
      "stateMutability": "view",
      "type": "function"
    },
    {
      "inputs": [],
      "name": "maximumAllowedTokensPerWallet",
      "outputs": [
        {
          "internalType": "uint256",
          "name": "",
          "type": "uint256"
        }
      ],
      "stateMutability": "view",
      "type": "function"
    },
    {
      "inputs": [],
      "name": "maximumMintSupply",
      "outputs": [
        {
          "internalType": "uint256",
          "name": "",
          "type": "uint256"
        }
      ],
      "stateMutability": "view",
      "type": "function"
    },
    {
      "inputs": [],
      "name": "mintPrice",
      "outputs": [
        {
          "internalType": "uint256",
          "name": "",
          "type": "uint256"
        }
      ],
      "stateMutability": "view",
      "type": "function"
    },
    {
      "inputs": [],
      "name": "name",
      "outputs": [
        {
          "internalType": "string",
          "name": "",
          "type": "string"
        }
      ],
      "stateMutability": "view",
      "type": "function"
    },
    {
      "inputs": [],
      "name": "nextOwnerToExplicitlySet",
      "outputs": [
        {
          "internalType": "uint256",
          "name": "",
          "type": "uint256"
        }
      ],
      "stateMutability": "view",
      "type": "function"
    },
    {
      "inputs": [],
      "name": "owner",
      "outputs": [
        {
          "internalType": "address",
          "name": "",
          "type": "address"
        }
      ],
      "stateMutability": "view",
      "type": "function"
    },
    {
      "inputs": [
        {
          "internalType": "uint256",
          "name": "tokenId",
          "type": "uint256"
        }
      ],
      "name": "ownerOf",
      "outputs": [
        {
          "internalType": "address",
          "name": "",
          "type": "address"
        }
      ],
      "stateMutability": "view",
      "type": "function"
    },
    {
      "inputs": [],
      "name": "preSaleMintPrice",
      "outputs": [
        {
          "internalType": "uint256",
          "name": "",
          "type": "uint256"
        }
      ],
      "stateMutability": "view",
      "type": "function"
    },
    {
      "inputs": [],
      "name": "raffleMintPrice",
      "outputs": [
        {
          "internalType": "uint256",
          "name": "",
          "type": "uint256"
        }
      ],
      "stateMutability": "view",
      "type": "function"
    },
    {
      "inputs": [],
      "name": "renounceOwnership",
      "outputs": [],
      "stateMutability": "nonpayable",
      "type": "function"
    },
    {
      "inputs": [],
      "name": "root",
      "outputs": [
        {
          "internalType": "bytes32",
          "name": "",
          "type": "bytes32"
        }
      ],
      "stateMutability": "view",
      "type": "function"
    },
    {
      "inputs": [
        {
          "internalType": "address",
          "name": "from",
          "type": "address"
        },
        {
          "internalType": "address",
          "name": "to",
          "type": "address"
        },
        {
          "internalType": "uint256",
          "name": "tokenId",
          "type": "uint256"
        }
      ],
      "name": "safeTransferFrom",
      "outputs": [],
      "stateMutability": "nonpayable",
      "type": "function"
    },
    {
      "inputs": [
        {
          "internalType": "address",
          "name": "from",
          "type": "address"
        },
        {
          "internalType": "address",
          "name": "to",
          "type": "address"
        },
        {
          "internalType": "uint256",
          "name": "tokenId",
          "type": "uint256"
        },
        {
          "internalType": "bytes",
          "name": "_data",
          "type": "bytes"
        }
      ],
      "name": "safeTransferFrom",
      "outputs": [],
      "stateMutability": "nonpayable",
      "type": "function"
    },
    {
      "inputs": [
        {
          "internalType": "address",
          "name": "operator",
          "type": "address"
        },
        {
          "internalType": "bool",
          "name": "approved",
          "type": "bool"
        }
      ],
      "name": "setApprovalForAll",
      "outputs": [],
      "stateMutability": "nonpayable",
      "type": "function"
    },
    {
      "inputs": [
        {
          "internalType": "bytes4",
          "name": "interfaceId",
          "type": "bytes4"
        }
      ],
      "name": "supportsInterface",
      "outputs": [
        {
          "internalType": "bool",
          "name": "",
          "type": "bool"
        }
      ],
      "stateMutability": "view",
      "type": "function"
    },
    {
      "inputs": [],
      "name": "symbol",
      "outputs": [
        {
          "internalType": "string",
          "name": "",
          "type": "string"
        }
      ],
      "stateMutability": "view",
      "type": "function"
    },
    {
      "inputs": [
        {
          "internalType": "uint256",
          "name": "index",
          "type": "uint256"
        }
      ],
      "name": "tokenByIndex",
      "outputs": [
        {
          "internalType": "uint256",
          "name": "",
          "type": "uint256"
        }
      ],
      "stateMutability": "view",
      "type": "function"
    },
    {
      "inputs": [
        {
          "internalType": "address",
          "name": "owner",
          "type": "address"
        },
        {
          "internalType": "uint256",
          "name": "index",
          "type": "uint256"
        }
      ],
      "name": "tokenOfOwnerByIndex",
      "outputs": [
        {
          "internalType": "uint256",
          "name": "",
          "type": "uint256"
        }
      ],
      "stateMutability": "view",
      "type": "function"
    },
    {
      "inputs": [
        {
          "internalType": "uint256",
          "name": "tokenId",
          "type": "uint256"
        }
      ],
      "name": "tokenURI",
      "outputs": [
        {
          "internalType": "string",
          "name": "",
          "type": "string"
        }
      ],
      "stateMutability": "view",
      "type": "function"
    },
    {
      "inputs": [],
      "name": "totalSupply",
      "outputs": [
        {
          "internalType": "uint256",
          "name": "",
          "type": "uint256"
        }
      ],
      "stateMutability": "view",
      "type": "function"
    },
    {
      "inputs": [
        {
          "internalType": "address",
          "name": "from",
          "type": "address"
        },
        {
          "internalType": "address",
          "name": "to",
          "type": "address"
        },
        {
          "internalType": "uint256",
          "name": "tokenId",
          "type": "uint256"
        }
      ],
      "name": "transferFrom",
      "outputs": [],
      "stateMutability": "nonpayable",
      "type": "function"
    },
    {
      "inputs": [
        {
          "internalType": "address",
          "name": "newOwner",
          "type": "address"
        }
      ],
      "name": "transferOwnership",
      "outputs": [],
      "stateMutability": "nonpayable",
      "type": "function"
    },
    {
      "inputs": [
        {
          "internalType": "uint256",
          "name": "_count",
          "type": "uint256"
        }
      ],
      "name": "setMaximumAllowedTokens",
      "outputs": [],
      "stateMutability": "nonpayable",
      "type": "function"
    },
    {
      "inputs": [
        {
          "internalType": "uint256",
          "name": "_count",
          "type": "uint256"
        }
      ],
      "name": "setMaximumAllowedTokensPerWallet",
      "outputs": [],
      "stateMutability": "nonpayable",
      "type": "function"
    },
    {
      "inputs": [
        {
          "internalType": "bool",
          "name": "val",
          "type": "bool"
        }
      ],
      "name": "setMintActive",
      "outputs": [],
      "stateMutability": "nonpayable",
      "type": "function"
    },
    {
      "inputs": [
        {
          "internalType": "uint256",
          "name": "maxMintSupply",
          "type": "uint256"
        }
      ],
      "name": "setMaxMintSupply",
      "outputs": [],
      "stateMutability": "nonpayable",
      "type": "function"
    },
    {
      "inputs": [
        {
          "internalType": "bool",
          "name": "_isRaffleActive",
          "type": "bool"
        }
      ],
      "name": "setRaffleActive",
      "outputs": [],
      "stateMutability": "nonpayable",
      "type": "function"
    },
    {
      "inputs": [
        {
          "internalType": "bool",
          "name": "_isPreSaleMintActive",
          "type": "bool"
        }
      ],
      "name": "setIsPreSaleMintActive",
      "outputs": [],
      "stateMutability": "nonpayable",
      "type": "function"
    },
    {
      "inputs": [
        {
          "internalType": "bool",
          "name": "_isSellOpen",
          "type": "bool"
        }
      ],
      "name": "setIsSellOpen",
      "outputs": [],
      "stateMutability": "nonpayable",
      "type": "function"
    },
    {
      "inputs": [
        {
          "internalType": "uint256",
          "name": "maxMint",
          "type": "uint256"
        }
      ],
      "name": "setAllowListMaxMint",
      "outputs": [],
      "stateMutability": "nonpayable",
      "type": "function"
    },
    {
      "inputs": [
        {
          "internalType": "address[]",
          "name": "addresses",
          "type": "address[]"
        }
      ],
      "name": "addToAllowList",
      "outputs": [],
      "stateMutability": "nonpayable",
      "type": "function"
    },
    {
      "inputs": [
        {
          "internalType": "address",
          "name": "addr",
          "type": "address"
        }
      ],
      "name": "checkIfOnAllowList",
      "outputs": [
        {
          "internalType": "bool",
          "name": "",
          "type": "bool"
        }
      ],
      "stateMutability": "view",
      "type": "function"
    },
    {
      "inputs": [
        {
          "internalType": "address[]",
          "name": "addresses",
          "type": "address[]"
        }
      ],
      "name": "removeFromAllowList",
      "outputs": [],
      "stateMutability": "nonpayable",
      "type": "function"
    },
    {
      "inputs": [
        {
          "internalType": "address",
          "name": "owner",
          "type": "address"
        }
      ],
      "name": "allowListClaimedBy",
      "outputs": [
        {
          "internalType": "uint256",
          "name": "",
          "type": "uint256"
        }
      ],
      "stateMutability": "view",
      "type": "function"
    },
    {
      "inputs": [
        {
          "internalType": "address",
          "name": "owner",
          "type": "address"
        }
      ],
      "name": "publicMintClaimed",
      "outputs": [
        {
          "internalType": "uint256",
          "name": "",
          "type": "uint256"
        }
      ],
      "stateMutability": "view",
      "type": "function"
    },
    {
      "inputs": [
        {
          "internalType": "uint256",
          "name": "val",
          "type": "uint256"
        }
      ],
      "name": "setReserveAtATime",
      "outputs": [],
      "stateMutability": "nonpayable",
      "type": "function"
    },
    {
      "inputs": [
        {
          "internalType": "uint256",
          "name": "val",
          "type": "uint256"
        }
      ],
      "name": "setMaxReserve",
      "outputs": [],
      "stateMutability": "nonpayable",
      "type": "function"
    },
    {
      "inputs": [
        {
          "internalType": "uint256",
          "name": "_price",
          "type": "uint256"
        }
      ],
      "name": "setMintPrice",
      "outputs": [],
      "stateMutability": "nonpayable",
      "type": "function"
    },
    {
      "inputs": [
        {
          "internalType": "uint256",
          "name": "_price",
          "type": "uint256"
        }
      ],
      "name": "setPreSaleMintPrice",
      "outputs": [],
      "stateMutability": "nonpayable",
      "type": "function"
    },
    {
      "inputs": [
        {
          "internalType": "uint256",
          "name": "_price",
          "type": "uint256"
        }
      ],
      "name": "setRaffleMintPrice",
      "outputs": [],
      "stateMutability": "nonpayable",
      "type": "function"
    },
    {
      "inputs": [
        {
          "internalType": "string",
          "name": "baseURI",
          "type": "string"
        }
      ],
      "name": "setBaseURI",
      "outputs": [],
      "stateMutability": "nonpayable",
      "type": "function"
    },
    {
      "inputs": [],
      "name": "getMaximumAllowedTokens",
      "outputs": [
        {
          "internalType": "uint256",
          "name": "",
          "type": "uint256"
        }
      ],
      "stateMutability": "view",
      "type": "function"
    },
    {
      "inputs": [],
      "name": "getMintPrice",
      "outputs": [
        {
          "internalType": "uint256",
          "name": "",
          "type": "uint256"
        }
      ],
      "stateMutability": "view",
      "type": "function"
    },
    {
      "inputs": [],
      "name": "getPreSaleMintPrice",
      "outputs": [
        {
          "internalType": "uint256",
          "name": "",
          "type": "uint256"
        }
      ],
      "stateMutability": "view",
      "type": "function"
    },
    {
      "inputs": [],
      "name": "getRaffleMintPrice",
      "outputs": [
        {
          "internalType": "uint256",
          "name": "",
          "type": "uint256"
        }
      ],
      "stateMutability": "view",
      "type": "function"
    },
    {
      "inputs": [],
      "name": "getIsClosedMintForever",
      "outputs": [
        {
          "internalType": "bool",
          "name": "",
          "type": "bool"
        }
      ],
      "stateMutability": "view",
      "type": "function"
    },
    {
      "inputs": [],
      "name": "setIsClosedMintForever",
      "outputs": [],
      "stateMutability": "nonpayable",
      "type": "function"
    },
    {
      "inputs": [
        {
          "internalType": "bytes32",
          "name": "_root",
          "type": "bytes32"
        }
      ],
      "name": "setRoot",
      "outputs": [],
      "stateMutability": "nonpayable",
      "type": "function"
    },
    {
      "inputs": [],
      "name": "getReserveAtATime",
      "outputs": [
        {
          "internalType": "uint256",
          "name": "",
          "type": "uint256"
        }
      ],
      "stateMutability": "view",
      "type": "function"
    },
    {
      "inputs": [],
      "name": "getTotalSupply",
      "outputs": [
        {
          "internalType": "uint256",
          "name": "",
          "type": "uint256"
        }
      ],
      "stateMutability": "view",
      "type": "function"
    },
    {
      "inputs": [],
      "name": "getRoot",
      "outputs": [
        {
          "internalType": "bytes32",
          "name": "",
          "type": "bytes32"
        }
      ],
      "stateMutability": "view",
      "type": "function"
    },
    {
      "inputs": [],
      "name": "getContractOwner",
      "outputs": [
        {
          "internalType": "address",
          "name": "",
          "type": "address"
        }
      ],
      "stateMutability": "view",
      "type": "function"
    },
    {
      "inputs": [],
      "name": "reserveNft",
      "outputs": [],
      "stateMutability": "nonpayable",
      "type": "function"
    },
    {
      "inputs": [
        {
          "internalType": "address",
          "name": "_walletAddress",
          "type": "address"
        },
        {
          "internalType": "uint256",
          "name": "_count",
          "type": "uint256"
        }
      ],
      "name": "reserveToCustomWallet",
      "outputs": [],
      "stateMutability": "nonpayable",
      "type": "function"
    },
    {
      "inputs": [
        {
          "internalType": "address",
          "name": "_to",
          "type": "address"
        },
        {
          "internalType": "uint256",
          "name": "_count",
          "type": "uint256"
        }
      ],
      "name": "mint",
      "outputs": [],
      "stateMutability": "payable",
      "type": "function"
    },
    {
      "inputs": [
        {
          "internalType": "uint256",
          "name": "_count",
          "type": "uint256"
        },
        {
          "internalType": "bytes32[]",
          "name": "_proof",
          "type": "bytes32[]"
        }
      ],
      "name": "raffleMint",
      "outputs": [],
      "stateMutability": "payable",
      "type": "function"
    },
    {
      "inputs": [
        {
          "internalType": "uint256",
          "name": "_count",
          "type": "uint256"
        }
      ],
      "name": "preSaleMint",
      "outputs": [],
      "stateMutability": "payable",
      "type": "function"
    },
    {
      "inputs": [
        {
          "internalType": "address",
          "name": "owner",
          "type": "address"
        }
      ],
      "name": "numberMinted",
      "outputs": [
        {
          "internalType": "uint256",
          "name": "",
          "type": "uint256"
        }
      ],
      "stateMutability": "view",
      "type": "function"
    },
    {
      "inputs": [
        {
          "internalType": "address",
          "name": "_owner",
          "type": "address"
        }
      ],
      "name": "walletOfOwner",
      "outputs": [
        {
          "internalType": "uint256[]",
          "name": "",
          "type": "uint256[]"
        }
      ],
      "stateMutability": "view",
      "type": "function"
    },
    {
      "inputs": [],
      "name": "withdraw",
      "outputs": [],
      "stateMutability": "nonpayable",
      "type": "function"
    }
  ],
  "bytecode": "0x60e06040526000808055600781905567058d15e176280000600a90815567016345785d8a0000600b819055600c556032600d55600e9190915561012c600f556011805464ffffffffff1916905561232860125560138190556014819055601555601680546001600160a01b031990811673053490b1e960aeeb1acb2bf10d53be7d264f35af179091556017805490911673afc1229ea5fbbd814cecb0a4d402fa6450762467179055348015620000b457600080fd5b506040516200438038038062004380833981016040819052620000d79162000339565b6040518060400160405280601781526020017f4275636b65747320436c75622046726f6e74204e696e650000000000000000008152506040518060400160405280601781526020017f4275636b65747320436c75622046726f6e74204e696e65000000000000000000815250838360008111620001715760405162461bcd60e51b815260040162000168906200046a565b60405180910390fd5b60008211620001945760405162461bcd60e51b8152600401620001689062000423565b8351620001a990600190602087019062000293565b508251620001bf90600290602086019062000293565b5060a09190915260805250620001e09050620001da620001f6565b620001fa565b620001eb836200024c565b5060c052506200050b565b3390565b600880546001600160a01b038381166001600160a01b0319831681179093556040519116919082907f8be0079c531659141344cd1fd0a4f28419497f9722a3daafe3b4186f6b6457e090600090a35050565b336200025762000284565b6001600160a01b0316146200026b57600080fd5b80516200028090601090602084019062000293565b5050565b6008546001600160a01b031690565b828054620002a190620004b8565b90600052602060002090601f016020900481019282620002c5576000855562000310565b82601f10620002e057805160ff191683800117855562000310565b8280016001018555821562000310579182015b8281111562000310578251825591602001919060010190620002f3565b506200031e92915062000322565b5090565b5b808211156200031e576000815560010162000323565b6000806000606084860312156200034e578283fd5b83516001600160401b038082111562000365578485fd5b818601915086601f83011262000379578485fd5b8151818111156200038e576200038e620004f5565b604051601f8201601f19908116603f01168101908382118183101715620003b957620003b9620004f5565b81604052828152602093508984848701011115620003d5578788fd5b8791505b82821015620003f85784820184015181830185015290830190620003d9565b828211156200040957878484830101525b928801516040909801519299979850919695505050505050565b60208082526027908201527f455243373231413a206d61782062617463682073697a65206d757374206265206040820152666e6f6e7a65726f60c81b606082015260800190565b6020808252602e908201527f455243373231413a20636f6c6c656374696f6e206d757374206861766520612060408201526d6e6f6e7a65726f20737570706c7960901b606082015260800190565b600281046001821680620004cd57607f821691505b60208210811415620004ef57634e487b7160e01b600052602260045260246000fd5b50919050565b634e487b7160e01b600052604160045260246000fd5b60805160a05160c051613e336200054d6000396000818161127b0152611c510152600081816125da015281816126040152612a0d015260005050613e336000f3fe60806040526004361061041a5760003560e01c80637835c6351161021e578063c3ac4feb11610123578063ea6eb836116100ab578063f132dc291161007a578063f132dc2914610b4f578063f2fde38b14610b64578063f4a0a52814610b84578063f6c9d9e314610ba4578063f7cb9e5414610bc45761041a565b8063ea6eb83614610ae5578063ebf0c71714610b05578063ec7d099114610b1a578063ee1cc94414610b2f5761041a565b8063d7224ba0116100f2578063d7224ba014610a5b578063dab5f34014610a70578063dc33e68114610a90578063e7b62d9614610ab0578063e985e9c514610ac55761041a565b8063c3ac4feb146109f1578063c4e41b2214610a11578063c87b56dd14610a26578063cadf881814610a465761041a565b806398590a39116101a6578063a51312c811610175578063a51312c814610972578063a7f93ebd14610992578063ad06d758146109a7578063b88d4fde146109bc578063c3441646146109dc5761041a565b806398590a39146109085780639a3bf728146109285780639ccb0fea1461093d578063a22cb465146109525761041a565b80637f44ab2f116101ed5780637f44ab2f1461089f5780638bc35c2f146108b45780638da5cb5b146108c9578063932ecebc146108de57806395d89b41146108f35761041a565b80637835c635146108445780637890b2c9146108575780637a6685f11461086a5780637d26f4701461088a5761041a565b8063431adcb1116103245780635ca1e165116102ac578063715018a61161027b578063715018a6146107ba57806371e3500c146107cf5780637263cfe2146107e45780637389fbb71461080457806377b501b9146108245761041a565b80635ca1e165146107505780636352211e146107655780636817c76c1461078557806370a082311461079a5761041a565b80634dfea627116102f35780634dfea627146106bb5780634f6ccce7146106db57806355f804b3146106fb57806356a87caa1461071b5780635b92ac0d1461073b5761041a565b8063431adcb11461064f578063438b630014610664578063442890d5146106915780634d0550de146106a65761041a565b80632c1205f4116103a75780633ccfd60b116103765780633ccfd60b146105d25780633cfac570146105e75780633e8f09871461060757806340c10f191461061c57806342842e0e1461062f5761041a565b80632c1205f4146105525780632f57bcfe146105725780632f745c59146105925780633b9ee7e4146105b25761041a565b8063095ea7b3116103ee578063095ea7b3146104d157806318160ddd146104f357806321a911f81461050857806323b872dd1461051d5780632992b0b01461053d5761041a565b806208ffdd1461041f57806301ffc9a71461045557806306fdde0314610482578063081812fc146104a4575b600080fd5b34801561042b57600080fd5b5061043f61043a366004612de8565b610be4565b60405161044c9190613220565b60405180910390f35b34801561046157600080fd5b50610475610470366004612fd9565b610c35565b60405161044c9190613215565b34801561048e57600080fd5b50610497610c96565b60405161044c9190613229565b3480156104b057600080fd5b506104c46104bf366004612fc1565b610d28565b60405161044c9190613180565b3480156104dd57600080fd5b506104f16104ec366004612f10565b610d6b565b005b3480156104ff57600080fd5b5061043f610e04565b34801561051457600080fd5b5061043f610e0a565b34801561052957600080fd5b506104f1610538366004612e34565b610e10565b34801561054957600080fd5b5061043f610e1b565b34801561055e57600080fd5b5061047561056d366004612de8565b610e21565b34801561057e57600080fd5b506104f161058d366004612fa7565b610e3f565b34801561059e57600080fd5b5061043f6105ad366004612f10565b610e6e565b3480156105be57600080fd5b506104f16105cd366004612fc1565b610f63565b3480156105de57600080fd5b506104f1610f84565b3480156105f357600080fd5b506104f1610602366004612fa7565b61109c565b34801561061357600080fd5b5061043f6110d4565b6104f161062a366004612f10565b6110da565b34801561063b57600080fd5b506104f161064a366004612e34565b611352565b34801561065b57600080fd5b5061047561136d565b34801561067057600080fd5b5061068461067f366004612de8565b61137e565b60405161044c91906131d1565b34801561069d57600080fd5b506104c461143b565b3480156106b257600080fd5b5061043f61144a565b3480156106c757600080fd5b506104f16106d6366004612fc1565b611450565b3480156106e757600080fd5b5061043f6106f6366004612fc1565b611471565b34801561070757600080fd5b506104f1610716366004613011565b61149d565b34801561072757600080fd5b506104f1610736366004612fc1565b6114cc565b34801561074757600080fd5b506104756114ed565b34801561075c57600080fd5b5061043f6114fb565b34801561077157600080fd5b506104c4610780366004612fc1565b611501565b34801561079157600080fd5b5061043f611513565b3480156107a657600080fd5b5061043f6107b5366004612de8565b611519565b3480156107c657600080fd5b506104f1611566565b3480156107db57600080fd5b506104f16115b1565b3480156107f057600080fd5b506104f16107ff366004612f39565b611677565b34801561081057600080fd5b506104f161081f366004612fc1565b611835565b34801561083057600080fd5b506104f161083f366004612f10565b611856565b6104f1610852366004612fc1565b6118d9565b6104f1610865366004613056565b611a68565b34801561087657600080fd5b506104f1610885366004612fc1565b611c18565b34801561089657600080fd5b50610475611c39565b3480156108ab57600080fd5b5061043f611c49565b3480156108c057600080fd5b5061043f611c4f565b3480156108d557600080fd5b506104c4611c73565b3480156108ea57600080fd5b506104f1611c82565b3480156108ff57600080fd5b50610497611cb3565b34801561091457600080fd5b506104f1610923366004612fa7565b611cc2565b34801561093457600080fd5b5061043f611cfe565b34801561094957600080fd5b50610475611d04565b34801561095e57600080fd5b506104f161096d366004612ee7565b611d13565b34801561097e57600080fd5b506104f161098d366004612f39565b611de1565b34801561099e57600080fd5b5061043f611edb565b3480156109b357600080fd5b5061043f611ee1565b3480156109c857600080fd5b506104f16109d7366004612e6f565b611f06565b3480156109e857600080fd5b50610475611f3f565b3480156109fd57600080fd5b506104f1610a0c366004612fc1565b611f48565b348015610a1d57600080fd5b5061043f611f69565b348015610a3257600080fd5b50610497610a41366004612fc1565b611f73565b348015610a5257600080fd5b5061043f611ff6565b348015610a6757600080fd5b5061043f611ffc565b348015610a7c57600080fd5b506104f1610a8b366004612fc1565b612002565b348015610a9c57600080fd5b5061043f610aab366004612de8565b612023565b348015610abc57600080fd5b5061043f61202e565b348015610ad157600080fd5b50610475610ae0366004612e02565b612034565b348015610af157600080fd5b506104f1610b00366004612fc1565b612062565b348015610b1157600080fd5b5061043f612083565b348015610b2657600080fd5b5061043f612089565b348015610b3b57600080fd5b506104f1610b4a366004612fa7565b61208f565b348015610b5b57600080fd5b506104756120f9565b348015610b7057600080fd5b506104f1610b7f366004612de8565b612109565b348015610b9057600080fd5b506104f1610b9f366004612fc1565b612177565b348015610bb057600080fd5b506104f1610bbf366004612fc1565b612198565b348015610bd057600080fd5b5061043f610bdf366004612de8565b6121b9565b60006001600160a01b038216610c155760405162461bcd60e51b8152600401610c0c906136aa565b60405180910390fd5b506001600160a01b0381166000908152601960205260409020545b919050565b60006001600160e01b031982166380ac58cd60e01b1480610c6657506001600160e01b03198216635b5e139f60e01b145b80610c8157506001600160e01b0319821663780e9d6360e01b145b80610c905750610c90826121fd565b92915050565b606060018054610ca590613d3b565b80601f0160208091040260200160405190810160405280929190818152602001828054610cd190613d3b565b8015610d1e5780601f10610cf357610100808354040283529160200191610d1e565b820191906000526020600020905b815481529060010190602001808311610d0157829003601f168201915b5050505050905090565b6000610d3382612216565b610d4f5760405162461bcd60e51b8152600401610c0c90613b58565b506000908152600560205260409020546001600160a01b031690565b6000610d7682611501565b9050806001600160a01b0316836001600160a01b03161415610daa5760405162461bcd60e51b8152600401610c0c90613820565b806001600160a01b0316610dbc61221d565b6001600160a01b03161480610dd85750610dd881610ae061221d565b610df45760405162461bcd60e51b8152600401610c0c90613550565b610dff838383612221565b505050565b60005490565b600b5490565b610dff83838361227d565b600c5490565b6001600160a01b031660009081526018602052604090205460ff1690565b33610e48611c73565b6001600160a01b031614610e5b57600080fd5b6011805460ff1916911515919091179055565b6000610e7983611519565b8210610e975760405162461bcd60e51b8152600401610c0c9061323c565b6000610ea1610e04565b905060008060005b83811015610f4a576000818152600360209081526040918290208251808401909352546001600160a01b038116808452600160a01b9091046001600160401b03169183019190915215610efb57805192505b876001600160a01b0316836001600160a01b03161415610f375786841415610f2957509350610c9092505050565b83610f3381613d76565b9450505b5080610f4281613d76565b915050610ea9565b5060405162461bcd60e51b8152600401610c0c90613a4d565b33610f6c611c73565b6001600160a01b031614610f7f57600080fd5b600b55565b33610f8d611c73565b6001600160a01b031614610fa057600080fd5b60165447906001600160a01b03166108fc612710610fc084612328613c9a565b610fca9190613c86565b6040518115909202916000818181858888f19350505050158015610ff2573d6000803e3d6000fd5b506017546001600160a01b03166108fc612710611011846103e8613c9a565b61101b9190613c86565b6040518115909202916000818181858888f19350505050158015611043573d6000803e3d6000fd5b5061104c611c73565b6001600160a01b03166108fc612710611066846000613c9a565b6110709190613c86565b6040518115909202916000818181858888f19350505050158015611098573d6000803e3d6000fd5b5050565b336110a5611c73565b6001600160a01b0316146110b857600080fd5b60118054911515620100000262ff000019909216919091179055565b600c5481565b6012546110e5610e04565b11156111035760405162461bcd60e51b8152600401610c0c9061345a565b3233146111225760405162461bcd60e51b8152600401610c0c90613519565b61112a611c73565b6001600160a01b0316336001600160a01b03161461116957601154610100900460ff166111695760405162461bcd60e51b8152600401610c0c906132ec565b611171611c73565b6001600160a01b0316826001600160a01b0316146111be576014548161119684611519565b6111a09190613c6e565b11156111be5760405162461bcd60e51b8152600401610c0c906133e0565b601454336000908152601a60205260409020546111dc908390613c6e565b11156111fa5760405162461bcd60e51b8152600401610c0c90613a9b565b60125481611206610e04565b6112109190613c6e565b111561122e5760405162461bcd60e51b8152600401610c0c906137f0565b601254611239610e04565b11156112575760405162461bcd60e51b8152600401610c0c906139e9565b6013548111156112795760405162461bcd60e51b8152600401610c0c906137b9565b7f0000000000000000000000000000000000000000000000000000000000000000816112a433612023565b6112ae9190613c6e565b11156112cc5760405162461bcd60e51b8152600401610c0c90613982565b6011546301000000900460ff16156112f65760405162461bcd60e51b8152600401610c0c906133b3565b80600a546113049190613c9a565b3410156113235760405162461bcd60e51b8152600401610c0c90613a16565b336000908152601a602052604081208054839290611342908490613c6e565b909155506110989050828261258f565b610dff83838360405180602001604052806000815250611f06565b601154640100000000900460ff1681565b6060600061138b83611519565b90506000816001600160401b038111156113b557634e487b7160e01b600052604160045260246000fd5b6040519080825280602002602001820160405280156113de578160200160208202803683370190505b50905060005b82811015611433576113f68582610e6e565b82828151811061141657634e487b7160e01b600052603260045260246000fd5b60209081029190910101528061142b81613d76565b9150506113e4565b509392505050565b6000611445611c73565b905090565b60125481565b33611459611c73565b6001600160a01b03161461146c57600080fd5b601355565b600061147b610e04565b82106114995760405162461bcd60e51b8152600401610c0c90613417565b5090565b336114a6611c73565b6001600160a01b0316146114b957600080fd5b8051611098906010906020840190612cbe565b336114d5611c73565b6001600160a01b0316146114e857600080fd5b600f55565b601154610100900460ff1681565b60095490565b600061150c826125a9565b5192915050565b600a5481565b60006001600160a01b0382166115415760405162461bcd60e51b8152600401610c0c906135ad565b506001600160a01b03166000908152600460205260409020546001600160801b031690565b61156e61221d565b6001600160a01b031661157f611c73565b6001600160a01b0316146115a55760405162461bcd60e51b8152600401610c0c90613675565b6115af60006126bb565b565b336115ba611c73565b6001600160a01b0316146115cd57600080fd5b600f54600e5411156115f15760405162461bcd60e51b8152600401610c0c9061327e565b601254600d546115ff610e04565b6116099190613c6e565b11156116275760405162461bcd60e51b8152600401610c0c906137f0565b601254611632610e04565b11156116505760405162461bcd60e51b8152600401610c0c906139e9565b600d54600e60008282546116649190613c6e565b925050819055506115af33600d5461258f565b33611680611c73565b6001600160a01b03161461169357600080fd5b60005b81811015610dff5760008383838181106116c057634e487b7160e01b600052603260045260246000fd5b90506020020160208101906116d59190612de8565b6001600160a01b031614156116fc5760405162461bcd60e51b8152600401610c0c9061363e565b60016018600085858581811061172257634e487b7160e01b600052603260045260246000fd5b90506020020160208101906117379190612de8565b6001600160a01b0316815260208101919091526040016000908120805460ff19169215159290921790915560198185858581811061178557634e487b7160e01b600052603260045260246000fd5b905060200201602081019061179a9190612de8565b6001600160a01b03166001600160a01b0316815260200190815260200160002054116117c7576000611822565b601960008484848181106117eb57634e487b7160e01b600052603260045260246000fd5b90506020020160208101906118009190612de8565b6001600160a01b03166001600160a01b03168152602001908152602001600020545b508061182d81613d76565b915050611696565b3361183e611c73565b6001600160a01b03161461185157600080fd5b601255565b3361185f611c73565b6001600160a01b03161461187257600080fd5b6012548161187e610e04565b6118889190613c6e565b11156118a65760405162461bcd60e51b8152600401610c0c906137f0565b6012546118b1610e04565b11156118cf5760405162461bcd60e51b8152600401610c0c906139e9565b611098828261258f565b6012546118e4610e04565b11156119025760405162461bcd60e51b8152600401610c0c9061345a565b60115462010000900460ff1661192a5760405162461bcd60e51b8152600401610c0c906139b2565b3360009081526018602052604090205460ff166119595760405162461bcd60e51b8152600401610c0c906132b5565b601254611964610e04565b106119815760405162461bcd60e51b8152600401610c0c90613b21565b6015548111156119a35760405162461bcd60e51b8152600401610c0c90613be7565b601554336000908152601960205260409020546119c1908390613c6e565b11156119df5760405162461bcd60e51b8152600401610c0c90613a9b565b80600b546119ed9190613c9a565b341015611a0c5760405162461bcd60e51b8152600401610c0c90613a16565b6011546301000000900460ff1615611a365760405162461bcd60e51b8152600401610c0c906133b3565b3360009081526019602052604081208054839290611a55908490613c6e565b90915550611a659050338261258f565b50565b601254611a73610e04565b1115611a915760405162461bcd60e51b8152600401610c0c9061345a565b600033604051602001611aa49190613134565b60408051601f19818403018152919052805160209091012060115490915060ff16611ae15760405162461bcd60e51b8152600401610c0c90613862565b600954611af09083908361270d565b611b0c5760405162461bcd60e51b8152600401610c0c9061391a565b601254611b17610e04565b10611b345760405162461bcd60e51b8152600401610c0c90613b21565b601554831115611b565760405162461bcd60e51b8152600401610c0c90613be7565b60155433600090815260196020526040902054611b74908590613c6e565b1115611b925760405162461bcd60e51b8152600401610c0c90613a9b565b82600c54611ba09190613c9a565b341015611bbf5760405162461bcd60e51b8152600401610c0c90613a16565b6011546301000000900460ff1615611be95760405162461bcd60e51b8152600401610c0c906133b3565b3360009081526019602052604081208054859290611c08908490613c6e565b90915550610dff9050338461258f565b33611c21611c73565b6001600160a01b031614611c3457600080fd5b601555565b6011546301000000900460ff1681565b60155481565b7f000000000000000000000000000000000000000000000000000000000000000081565b6008546001600160a01b031690565b33611c8b611c73565b6001600160a01b031614611c9e57600080fd5b6011805463ff00000019166301000000179055565b606060028054610ca590613d3b565b33611ccb611c73565b6001600160a01b031614611cde57600080fd5b601180549115156401000000000264ff0000000019909216919091179055565b60135481565b60115462010000900460ff1681565b611d1b61221d565b6001600160a01b0316826001600160a01b03161415611d4c5760405162461bcd60e51b8152600401610c0c90613730565b8060066000611d5961221d565b6001600160a01b03908116825260208083019390935260409182016000908120918716808252919093529120805460ff191692151592909217909155611d9d61221d565b6001600160a01b03167f17307eab39ab6107e8899845ad3d59bd9653f200f220920489ca2b5937696c3183604051611dd59190613215565b60405180910390a35050565b33611dea611c73565b6001600160a01b031614611dfd57600080fd5b60005b81811015610dff576000838383818110611e2a57634e487b7160e01b600052603260045260246000fd5b9050602002016020810190611e3f9190612de8565b6001600160a01b03161415611e665760405162461bcd60e51b8152600401610c0c9061363e565b600060186000858585818110611e8c57634e487b7160e01b600052603260045260246000fd5b9050602002016020810190611ea19190612de8565b6001600160a01b031681526020810191909152604001600020805460ff191691151591909117905580611ed381613d76565b915050611e00565b600a5490565b600033611eec611c73565b6001600160a01b031614611eff57600080fd5b5060135490565b611f1184848461227d565b611f1d84848484612723565b611f395760405162461bcd60e51b8152600401610c0c90613890565b50505050565b60115460ff1681565b33611f51611c73565b6001600160a01b031614611f6457600080fd5b600c55565b6000611445610e04565b6060611f7e82612216565b611f9a5760405162461bcd60e51b8152600401610c0c906136e1565b6000611fa461283f565b90506000815111611fc45760405180602001604052806000815250611fef565b80611fce8461284e565b604051602001611fdf929190613151565b6040516020818303038152906040525b9392505050565b60145481565b60075481565b3361200b611c73565b6001600160a01b03161461201e57600080fd5b600955565b6000610c9082612968565b600d5490565b6001600160a01b03918216600090815260066020908152604080832093909416825291909152205460ff1690565b3361206b611c73565b6001600160a01b03161461207e57600080fd5b601455565b60095481565b600b5481565b33612098611c73565b6001600160a01b0316146120ab57600080fd5b6011805461ff001916610100831515021790556040517f58655b75d3df612fe99ead00dbf0812d415d35078fe06217a94c0818bb13967f906120ee908390613215565b60405180910390a150565b6011546301000000900460ff1690565b61211161221d565b6001600160a01b0316612122611c73565b6001600160a01b0316146121485760405162461bcd60e51b8152600401610c0c90613675565b6001600160a01b03811661216e5760405162461bcd60e51b8152600401610c0c90613323565b611a65816126bb565b33612180611c73565b6001600160a01b03161461219357600080fd5b600a55565b336121a1611c73565b6001600160a01b0316146121b457600080fd5b600d55565b60006001600160a01b0382166121e15760405162461bcd60e51b8152600401610c0c906136aa565b506001600160a01b03166000908152601a602052604090205490565b6001600160e01b031981166301ffc9a760e01b14919050565b6000541190565b3390565b60008281526005602052604080822080546001600160a01b0319166001600160a01b0387811691821790925591518593918516917f8c5be1e5ebec7d5bd14f71427d1e84f3dd0314c0f7b2291e5b200ac8c7c3b92591a4505050565b6000612288826125a9565b9050600081600001516001600160a01b03166122a261221d565b6001600160a01b031614806122d757506122ba61221d565b6001600160a01b03166122cc84610d28565b6001600160a01b0316145b806122eb575081516122eb90610ae061221d565b90508061230a5760405162461bcd60e51b8152600401610c0c90613767565b846001600160a01b031682600001516001600160a01b03161461233f5760405162461bcd60e51b8152600401610c0c906135f8565b6001600160a01b0384166123655760405162461bcd60e51b8152600401610c0c90613483565b6123728585856001611f39565b6123826000848460000151612221565b6001600160a01b03851660009081526004602052604081208054600192906123b49084906001600160801b0316613cb9565b82546101009290920a6001600160801b038181021990931691831602179091556001600160a01b0386166000908152600460205260408120805460019450909261240091859116613c4c565b82546001600160801b039182166101009390930a9283029190920219909116179055506040805180820182526001600160a01b0380871682526001600160401b03428116602080850191825260008981526003909152948520935184549151909216600160a01b0267ffffffffffffffff60a01b19929093166001600160a01b03199091161716179055612495846001613c6e565b6000818152600360205260409020549091506001600160a01b0316612539576124bd81612216565b156125395760408051808201825284516001600160a01b0390811682526020808701516001600160401b0390811682850190815260008781526003909352949091209251835494516001600160a01b031990951692169190911767ffffffffffffffff60a01b1916600160a01b93909116929092029190911790555b83856001600160a01b0316876001600160a01b03167fddf252ad1be2c89b69c2b068fc378daa952ba7f163c4a11628f55a4df523b3ef60405160405180910390a46125878686866001611f39565b505050505050565b6110988282604051806020016040528060008152506129bc565b6125b1612d3e565b6125ba82612216565b6125d65760405162461bcd60e51b8152600401610c0c90613369565b60007f00000000000000000000000000000000000000000000000000000000000000008310612637576126297f000000000000000000000000000000000000000000000000000000000000000084613ce1565b612634906001613c6e565b90505b825b8181106126a2576000818152600360209081526040918290208251808401909352546001600160a01b038116808452600160a01b9091046001600160401b0316918301919091521561268f579250610c30915050565b508061269a81613d24565b915050612639565b5060405162461bcd60e51b8152600401610c0c90613ad2565b600880546001600160a01b038381166001600160a01b0319831681179093556040519116919082907f8be0079c531659141344cd1fd0a4f28419497f9722a3daafe3b4186f6b6457e090600090a35050565b60008261271a8584612c2e565b14949350505050565b6000612737846001600160a01b0316612ca0565b1561283357836001600160a01b031663150b7a0261275361221d565b8786866040518563ffffffff1660e01b81526004016127759493929190613194565b602060405180830381600087803b15801561278f57600080fd5b505af19250505080156127bf575060408051601f3d908101601f191682019092526127bc91810190612ff5565b60015b612819573d8080156127ed576040519150601f19603f3d011682016040523d82523d6000602084013e6127f2565b606091505b5080516128115760405162461bcd60e51b8152600401610c0c90613890565b805181602001fd5b6001600160e01b031916630a85bd0160e11b149050612837565b5060015b949350505050565b606060108054610ca590613d3b565b60608161287357506040805180820190915260018152600360fc1b6020820152610c30565b8160005b811561289d578061288781613d76565b91506128969050600a83613c86565b9150612877565b6000816001600160401b038111156128c557634e487b7160e01b600052604160045260246000fd5b6040519080825280601f01601f1916602001820160405280156128ef576020820181803683370190505b5090505b841561283757612904600183613ce1565b9150612911600a86613d91565b61291c906030613c6e565b60f81b81838151811061293f57634e487b7160e01b600052603260045260246000fd5b60200101906001600160f81b031916908160001a905350612961600a86613c86565b94506128f3565b60006001600160a01b0382166129905760405162461bcd60e51b8152600401610c0c906134c8565b506001600160a01b0316600090815260046020526040902054600160801b90046001600160801b031690565b6000546001600160a01b0384166129e55760405162461bcd60e51b8152600401610c0c90613941565b6129ee81612216565b15612a0b5760405162461bcd60e51b8152600401610c0c906138e3565b7f0000000000000000000000000000000000000000000000000000000000000000831115612a4b5760405162461bcd60e51b8152600401610c0c90613ba5565b612a586000858386611f39565b6001600160a01b0384166000908152600460209081526040918290208251808401845290546001600160801b038082168352600160801b9091041691810191909152815180830190925280519091908190612ab4908790613c4c565b6001600160801b03168152602001858360200151612ad29190613c4c565b6001600160801b039081169091526001600160a01b03808816600081815260046020908152604080832087518154988401518816600160801b029088166fffffffffffffffffffffffffffffffff199099169890981790961696909617909455845180860186529182526001600160401b034281168386019081528883526003909552948120915182549451909516600160a01b0267ffffffffffffffff60a01b19959093166001600160a01b031990941693909317939093161790915582905b85811015612c1c5760405182906001600160a01b038916906000907fddf252ad1be2c89b69c2b068fc378daa952ba7f163c4a11628f55a4df523b3ef908290a4612be06000888488612723565b612bfc5760405162461bcd60e51b8152600401610c0c90613890565b81612c0681613d76565b9250508080612c1490613d76565b915050612b93565b50600081815561258790878588611f39565b600081815b8451811015611433576000858281518110612c5e57634e487b7160e01b600052603260045260246000fd5b60200260200101519050808311612c8057612c798382612caf565b9250612c8d565b612c8a8184612caf565b92505b5080612c9881613d76565b915050612c33565b6001600160a01b03163b151590565b60009182526020526040902090565b828054612cca90613d3b565b90600052602060002090601f016020900481019282612cec5760008555612d32565b82601f10612d0557805160ff1916838001178555612d32565b82800160010185558215612d32579182015b82811115612d32578251825591602001919060010190612d17565b50611499929150612d55565b604080518082019091526000808252602082015290565b5b808211156114995760008155600101612d56565b60006001600160401b03831115612d8357612d83613dd1565b612d96601f8401601f1916602001613c1c565b9050828152838383011115612daa57600080fd5b828260208301376000602084830101529392505050565b80356001600160a01b0381168114610c3057600080fd5b80358015158114610c3057600080fd5b600060208284031215612df9578081fd5b611fef82612dc1565b60008060408385031215612e14578081fd5b612e1d83612dc1565b9150612e2b60208401612dc1565b90509250929050565b600080600060608486031215612e48578081fd5b612e5184612dc1565b9250612e5f60208501612dc1565b9150604084013590509250925092565b60008060008060808587031215612e84578081fd5b612e8d85612dc1565b9350612e9b60208601612dc1565b92506040850135915060608501356001600160401b03811115612ebc578182fd5b8501601f81018713612ecc578182fd5b612edb87823560208401612d6a565b91505092959194509250565b60008060408385031215612ef9578182fd5b612f0283612dc1565b9150612e2b60208401612dd8565b60008060408385031215612f22578182fd5b612f2b83612dc1565b946020939093013593505050565b60008060208385031215612f4b578182fd5b82356001600160401b0380821115612f61578384fd5b818501915085601f830112612f74578384fd5b813581811115612f82578485fd5b8660208083028501011115612f95578485fd5b60209290920196919550909350505050565b600060208284031215612fb8578081fd5b611fef82612dd8565b600060208284031215612fd2578081fd5b5035919050565b600060208284031215612fea578081fd5b8135611fef81613de7565b600060208284031215613006578081fd5b8151611fef81613de7565b600060208284031215613022578081fd5b81356001600160401b03811115613037578182fd5b8201601f81018413613047578182fd5b61283784823560208401612d6a565b60008060408385031215613068578182fd5b823591506020808401356001600160401b0380821115613086578384fd5b818601915086601f830112613099578384fd5b8135818111156130ab576130ab613dd1565b83810291506130bb848301613c1c565b8181528481019084860184860187018b10156130d5578788fd5b8795505b838610156130f75780358352600195909501949186019186016130d9565b508096505050505050509250929050565b60008151808452613120816020860160208601613cf8565b601f01601f19169290920160200192915050565b60609190911b6bffffffffffffffffffffffff1916815260140190565b60008351613163818460208801613cf8565b835190830190613177818360208801613cf8565b01949350505050565b6001600160a01b0391909116815260200190565b6001600160a01b03858116825284166020820152604081018390526080606082018190526000906131c790830184613108565b9695505050505050565b6020808252825182820181905260009190848201906040850190845b81811015613209578351835292840192918401916001016131ed565b50909695505050505050565b901515815260200190565b90815260200190565b600060208252611fef6020830184613108565b60208082526022908201527f455243373231413a206f776e657220696e646578206f7574206f6620626f756e604082015261647360f01b606082015260800190565b6020808252601b908201527f4d61782052657365727665732074616b656e20616c7265616479210000000000604082015260600190565b6020808252601d908201527f596f7520617265206e6f74206f6e2074686520416c6c6f77204c697374000000604082015260600190565b6020808252601d908201527f53616c65206973206e6f74206163746976652063757272656e746c792e000000604082015260600190565b60208082526026908201527f4f776e61626c653a206e6577206f776e657220697320746865207a65726f206160408201526564647265737360d01b606082015260800190565b6020808252602a908201527f455243373231413a206f776e657220717565727920666f72206e6f6e657869736040820152693a32b73a103a37b5b2b760b11b606082015260800190565b60208082526013908201527226b4b73a1021b637b9b2b2102337b932bb32b960691b604082015260600190565b60208082526018908201527f4d617820686f6c64696e672063617020726561636865642e0000000000000000604082015260600190565b60208082526023908201527f455243373231413a20676c6f62616c20696e646578206f7574206f6620626f756040820152626e647360e81b606082015260800190565b6020808252600f908201526e29b0b632903430b99032b73232b21760891b604082015260600190565b60208082526025908201527f455243373231413a207472616e7366657220746f20746865207a65726f206164604082015264647265737360d81b606082015260800190565b60208082526031908201527f455243373231413a206e756d626572206d696e74656420717565727920666f7260408201527020746865207a65726f206164647265737360781b606082015260800190565b6020808252601e908201527f5468652063616c6c657220697320616e6f7468657220636f6e74726163740000604082015260600190565b60208082526039908201527f455243373231413a20617070726f76652063616c6c6572206973206e6f74206f60408201527f776e6572206e6f7220617070726f76656420666f7220616c6c00000000000000606082015260800190565b6020808252602b908201527f455243373231413a2062616c616e636520717565727920666f7220746865207a60408201526a65726f206164647265737360a81b606082015260800190565b60208082526026908201527f455243373231413a207472616e736665722066726f6d20696e636f72726563746040820152651037bbb732b960d11b606082015260800190565b60208082526018908201527f43616e2774206164642061206e756c6c20616464726573730000000000000000604082015260600190565b6020808252818101527f4f776e61626c653a2063616c6c6572206973206e6f7420746865206f776e6572604082015260600190565b6020808252601e908201527f5a65726f2061646472657373206e6f74206f6e20416c6c6f77204c6973740000604082015260600190565b6020808252602f908201527f4552433732314d657461646174613a2055524920717565727920666f72206e6f60408201526e3732bc34b9ba32b73a103a37b5b2b760891b606082015260800190565b6020808252601a908201527f455243373231413a20617070726f766520746f2063616c6c6572000000000000604082015260600190565b60208082526032908201527f455243373231413a207472616e736665722063616c6c6572206973206e6f74206040820152711bdddb995c881b9bdc88185c1c1c9bdd995960721b606082015260800190565b6020808252601e908201527f45786365656473206d6178696d756d20616c6c6f77656420746f6b656e730000604082015260600190565b6020808252601690820152752a37ba30b61039bab838363c9032bc31b2b2b232b21760511b604082015260600190565b60208082526022908201527f455243373231413a20617070726f76616c20746f2063757272656e74206f776e60408201526132b960f11b606082015260800190565b602080825260149082015273526166666c65206973206e6f742061637469766560601b604082015260600190565b60208082526033908201527f455243373231413a207472616e7366657220746f206e6f6e204552433732315260408201527232b1b2b4bb32b91034b6b83632b6b2b73a32b960691b606082015260800190565b6020808252601d908201527f455243373231413a20746f6b656e20616c7265616479206d696e746564000000604082015260600190565b6020808252600d908201526c34b73b30b634b210383937b7b360991b604082015260600190565b60208082526021908201527f455243373231413a206d696e7420746f20746865207a65726f206164647265736040820152607360f81b606082015260800190565b60208082526016908201527563616e206e6f74206d696e742074686973206d616e7960501b604082015260600190565b6020808252601b908201527f5072652053616c65204d696e74206973206e6f74206163746976650000000000604082015260600190565b6020808252601390820152722a37ba30b61039bab838363c9039b832b73a1760691b604082015260600190565b6020808252601b908201527f496e7375666669656e742045544820616d6f756e742073656e742e0000000000604082015260600190565b6020808252602e908201527f455243373231413a20756e61626c6520746f2067657420746f6b656e206f662060408201526d0deeedccae440c4f240d2dcc8caf60931b606082015260800190565b6020808252601c908201527f50757263686173652065786365656473206d617820616c6c6f77656400000000604082015260600190565b6020808252602f908201527f455243373231413a20756e61626c6520746f2064657465726d696e652074686560408201526e1037bbb732b91037b3103a37b5b2b760891b606082015260800190565b6020808252601b908201527f416c6c20746f6b656e732068617665206265656e206d696e7465640000000000604082015260600190565b6020808252602d908201527f455243373231413a20617070726f76656420717565727920666f72206e6f6e6560408201526c3c34b9ba32b73a103a37b5b2b760991b606082015260800190565b60208082526022908201527f455243373231413a207175616e7469747920746f206d696e7420746f6f2068696040820152610ced60f31b606082015260800190565b6020808252818101527f43616e6e6f742070757263686173652074686973206d616e7920746f6b656e73604082015260600190565b604051601f8201601f191681016001600160401b0381118282101715613c4457613c44613dd1565b604052919050565b60006001600160801b0380831681851680830382111561317757613177613da5565b60008219821115613c8157613c81613da5565b500190565b600082613c9557613c95613dbb565b500490565b6000816000190483118215151615613cb457613cb4613da5565b500290565b60006001600160801b0383811690831681811015613cd957613cd9613da5565b039392505050565b600082821015613cf357613cf3613da5565b500390565b60005b83811015613d13578181015183820152602001613cfb565b83811115611f395750506000910152565b600081613d3357613d33613da5565b506000190190565b600281046001821680613d4f57607f821691505b60208210811415613d7057634e487b7160e01b600052602260045260246000fd5b50919050565b6000600019821415613d8a57613d8a613da5565b5060010190565b600082613da057613da0613dbb565b500690565b634e487b7160e01b600052601160045260246000fd5b634e487b7160e01b600052601260045260246000fd5b634e487b7160e01b600052604160045260246000fd5b6001600160e01b031981168114611a6557600080fdfea26469706673582212202655baf6714a6436d087de177d72129e7b9fd7af48e18f2ec6f03247d86d8ea964736f6c63430008010033",
  "immutableReferences": {
    "1009": [
      {
        "length": 32,
        "start": 4731
      },
      {
        "length": 32,
        "start": 7249
      }
    ],
    "2049": [
      {
        "length": 32,
        "start": 9690
      },
      {
        "length": 32,
        "start": 9732
      },
      {
        "length": 32,
        "start": 10765
      }
    ]
  },
  "source": "// SPDX-License-Identifier: MIT\n// Made by: NFT Stack\n//          https://nftstack.info\n//\n\npragma solidity ^0.8.1;\n\nimport \"@openzeppelin/contracts/access/Ownable.sol\";\nimport \"@openzeppelin/contracts/utils/cryptography/MerkleProof.sol\";\nimport \"./ERC721A.sol\";\n\ncontract BucketsClubFrontNine is ERC721A, Ownable {\n  using MerkleProof for bytes32[];\n\n  bytes32 public root;\n\n  uint256 public mintPrice = 0.4 ether;\n  uint256 public preSaleMintPrice =  0.1 ether;\n  uint256 public raffleMintPrice = 0.1 ether;\n\n  uint256 private reserveAtATime = 50;\n  uint256 private reservedCount = 0;\n  uint256 private maxReserveCount = 300;\n\n  string _baseTokenURI;\n\n  bool public isRaffleActive = false;\n  bool public isMintActive = false;\n  bool public isPreSaleMintActive = false;\n  bool public isClosedMintForever = false;\n  bool public isSellOpen = false;\n\n  uint256 public maximumMintSupply = 9000;\n  uint256 public maximumAllowedTokensPerPurchase = 10;\n  uint256 public maximumAllowedTokensPerWallet = 10;\n  uint256 public allowListMaxMint = 10;\n  uint256 public immutable maxPerAddressDuringMint;\n\n  address private OtherAddress1 = 0x053490B1e960AeeB1aCB2bf10d53BE7d264f35Af;\n  address private OtherAddress2 = 0xAFc1229EA5fBBD814CECb0A4d402FA6450762467;\n\n  mapping(address => bool) private _allowList;\n  mapping(address => uint256) private _allowListClaimed;\n  mapping(address => uint256) private _publicMintClaimed;\n\n  event AssetMinted(uint256 tokenId, address sender);\n  event SaleActivation(bool isMintActive);\n\n  constructor(\n    string memory baseURI,\n    uint256 maxBatchSize_,\n    uint256 collectionSize_\n  ) ERC721A(\"Buckets Club Front Nine\", \"Buckets Club Front Nine\", maxBatchSize_, collectionSize_) {\n    setBaseURI(baseURI);\n    maxPerAddressDuringMint = maxBatchSize_;\n  }\n\n  modifier saleIsOpen {\n    require(totalSupply() <= maximumMintSupply, \"Sale has ended.\");\n    _;\n  }\n\n  modifier onlyAuthorized() {\n    require(owner() == msg.sender);\n    _;\n  }\n\n  modifier callerIsUser() {\n    require(tx.origin == msg.sender, \"The caller is another contract\");\n    _;\n  }\n\n  function setMaximumAllowedTokens(uint256 _count) public onlyAuthorized {\n    maximumAllowedTokensPerPurchase = _count;\n  }\n\n  function setMaximumAllowedTokensPerWallet(uint256 _count) public onlyAuthorized {\n    maximumAllowedTokensPerWallet = _count;\n  }\n\n  function setMintActive(bool val) public onlyAuthorized {\n    isMintActive = val;\n    emit SaleActivation(val);\n  }\n\n  function setMaxMintSupply(uint256 maxMintSupply) external  onlyAuthorized {\n    maximumMintSupply = maxMintSupply;\n  }\n\n  function setRaffleActive(bool _isRaffleActive) public onlyAuthorized {\n    isRaffleActive = _isRaffleActive;\n  }\n\n  function setIsPreSaleMintActive(bool _isPreSaleMintActive) external onlyAuthorized {\n    isPreSaleMintActive = _isPreSaleMintActive;\n  }\n\n  function setIsSellOpen(bool _isSellOpen) external onlyAuthorized {\n    isSellOpen = _isSellOpen;\n  }\n\n  function setAllowListMaxMint(uint256 maxMint) external  onlyAuthorized {\n    allowListMaxMint = maxMint;\n  }\n\n  function addToAllowList(address[] calldata addresses) external onlyAuthorized {\n    for (uint256 i = 0; i < addresses.length; i++) {\n      require(addresses[i] != address(0), \"Can't add a null address\");\n      _allowList[addresses[i]] = true;\n      _allowListClaimed[addresses[i]] > 0 ? _allowListClaimed[addresses[i]] : 0;\n    }\n  }\n\n  function checkIfOnAllowList(address addr) external view returns (bool) {\n    return _allowList[addr];\n  }\n\n  function removeFromAllowList(address[] calldata addresses) external onlyAuthorized {\n    for (uint256 i = 0; i < addresses.length; i++) {\n      require(addresses[i] != address(0), \"Can't add a null address\");\n      _allowList[addresses[i]] = false;\n    }\n  }\n\n  function allowListClaimedBy(address owner) external view returns (uint256){\n    require(owner != address(0), 'Zero address not on Allow List');\n    return _allowListClaimed[owner];\n  }\n\n  function publicMintClaimed(address owner) external view returns (uint256){\n    require(owner != address(0), 'Zero address not on Allow List');\n    return _publicMintClaimed[owner];\n  }\n\n  function setReserveAtATime(uint256 val) public onlyAuthorized {\n    reserveAtATime = val;\n  }\n\n  function setMaxReserve(uint256 val) public onlyAuthorized {\n    maxReserveCount = val;\n  }\n\n  function setMintPrice(uint256 _price) public onlyAuthorized {\n    mintPrice = _price;\n  }\n\n  function setPreSaleMintPrice(uint256 _price) public onlyAuthorized {\n    preSaleMintPrice = _price;\n  }\n\n  function setRaffleMintPrice(uint256 _price) public onlyAuthorized {\n    raffleMintPrice = _price;\n  }\n\n  function setBaseURI(string memory baseURI) public onlyAuthorized {\n    _baseTokenURI = baseURI;\n  }\n\n  function getMaximumAllowedTokens() public view onlyAuthorized returns (uint256) {\n    return maximumAllowedTokensPerPurchase;\n  }\n\n  function getMintPrice() external view returns (uint256) {\n    return mintPrice;\n  }\n\n  function getPreSaleMintPrice() external view returns (uint256) {\n    return preSaleMintPrice;\n  }\n\n  function getRaffleMintPrice() external view returns (uint256) {\n    return raffleMintPrice;\n  }\n\n  function getIsClosedMintForever() external view returns (bool) {\n    return isClosedMintForever;\n  }\n\n  function setIsClosedMintForever() external onlyAuthorized {\n    isClosedMintForever = true;\n  }\n\n  function setRoot(bytes32 _root) public onlyAuthorized {\n    root = _root;\n  }\n\n  function getReserveAtATime() external view returns (uint256) {\n    return reserveAtATime;\n  }\n\n  function getTotalSupply() external view returns (uint256) {\n    return totalSupply();\n  }\n\n  function getRoot() external view returns (bytes32) {\n    return root;\n  }\n\n  function getContractOwner() public view returns (address) {\n    return owner();\n  }\n\n  function _baseURI() internal view virtual override returns (string memory) {\n    return _baseTokenURI;\n  }\n\n  function reserveNft() public onlyAuthorized {\n    require(reservedCount <= maxReserveCount, \"Max Reserves taken already!\");\n    require(totalSupply() + reserveAtATime <= maximumMintSupply, \"Total supply exceeded.\");\n    require(totalSupply() <= maximumMintSupply, \"Total supply spent.\");\n\n    reservedCount += reserveAtATime;\n    _safeMint(msg.sender, reserveAtATime);\n  }\n\n  function reserveToCustomWallet(address _walletAddress, uint256 _count) public onlyAuthorized {\n    require(totalSupply() + _count <= maximumMintSupply, \"Total supply exceeded.\");\n    require(totalSupply() <= maximumMintSupply, \"Total supply spent.\");\n\n    _safeMint(_walletAddress, _count);\n  }\n\n  function mint(address _to, uint256 _count) public payable saleIsOpen callerIsUser {\n    if (msg.sender != owner()) {\n      require(isMintActive, \"Sale is not active currently.\");\n    }\n\n    if(_to != owner()) {\n      require(balanceOf(_to) + _count <= maximumAllowedTokensPerWallet, \"Max holding cap reached.\");\n    }\n\n    require(_publicMintClaimed[msg.sender] + _count <= maximumAllowedTokensPerWallet, \"Purchase exceeds max allowed\");\n    require(totalSupply() + _count <= maximumMintSupply, \"Total supply exceeded.\");\n    require(totalSupply() <= maximumMintSupply, \"Total supply spent.\");\n    require(\n      _count <= maximumAllowedTokensPerPurchase,\n      \"Exceeds maximum allowed tokens\"\n    );\n    require(\n      numberMinted(msg.sender) + _count <= maxPerAddressDuringMint,\n      \"can not mint this many\"\n    );\n    require(!isClosedMintForever, \"Mint Closed Forever\");\n    require(msg.value >= mintPrice * _count, \"Insuffient ETH amount sent.\");\n\n    _publicMintClaimed[msg.sender] += _count;\n    _safeMint(_to, _count);\n  }\n\n  function raffleMint(uint256 _count, bytes32[] memory _proof) public payable saleIsOpen {\n    bytes32 leaf = keccak256(abi.encodePacked(msg.sender));\n\n    require(isRaffleActive, \"Raffle is not active\");\n    require(_proof.verify(root, leaf), \"invalid proof\");\n    require(totalSupply() < maximumMintSupply, \"All tokens have been minted\");\n    require(_count <= allowListMaxMint, \"Cannot purchase this many tokens\");\n    require(_allowListClaimed[msg.sender] + _count <= allowListMaxMint, \"Purchase exceeds max allowed\");\n    require(msg.value >= raffleMintPrice * _count, \"Insuffient ETH amount sent.\");\n    require(!isClosedMintForever, \"Mint Closed Forever\");\n    _allowListClaimed[msg.sender] += _count;\n\n    _safeMint(msg.sender, _count);\n  }\n\n  function preSaleMint(uint256 _count) public payable saleIsOpen {\n    require(isPreSaleMintActive, 'Pre Sale Mint is not active');\n    require(_allowList[msg.sender], 'You are not on the Allow List');\n    require(totalSupply() < maximumMintSupply, 'All tokens have been minted');\n    require(_count <= allowListMaxMint, 'Cannot purchase this many tokens');\n    require(_allowListClaimed[msg.sender] + _count <= allowListMaxMint, 'Purchase exceeds max allowed');\n    require(msg.value >= preSaleMintPrice * _count, 'Insuffient ETH amount sent.');\n    require(!isClosedMintForever, 'Mint Closed Forever');\n    _allowListClaimed[msg.sender] += _count;\n\n    _safeMint(msg.sender, _count);\n  }\n\n  function numberMinted(address owner) public view returns (uint256) {\n    return _numberMinted(owner);\n  }\n\n  function walletOfOwner(address _owner) external view returns(uint256[] memory) {\n    uint tokenCount = balanceOf(_owner);\n    uint256[] memory tokensId = new uint256[](tokenCount);\n\n    for(uint i = 0; i < tokenCount; i++){\n      tokensId[i] = tokenOfOwnerByIndex(_owner, i);\n    }\n    return tokensId;\n  }\n\n  function withdraw() external onlyAuthorized {\n    uint balance = address(this).balance;\n    payable(OtherAddress1).transfer(balance * 9000 / 10000);\n    payable(OtherAddress2).transfer(balance * 1000 / 10000);\n    payable(owner()).transfer(balance * 0 / 10000);\n  }\n}",
  "sourcePath": "/Users/nftstack/Documents/GitHub/malbon-buckets/contracts/BucketsClubFrontNine.sol",
  "compiler": {
    "name": "solc",
    "version": "0.8.1+commit.df193b15.Emscripten.clang"
  },
  "schemaVersion": "3.4.7",
  "updatedAt": "2022-07-22T12:44:43.173Z",
  "devdoc": {
    "kind": "dev",
    "methods": {
      "approve(address,uint256)": {
        "details": "See {IERC721-approve}."
      },
      "balanceOf(address)": {
        "details": "See {IERC721-balanceOf}."
      },
      "getApproved(uint256)": {
        "details": "See {IERC721-getApproved}."
      },
      "isApprovedForAll(address,address)": {
        "details": "See {IERC721-isApprovedForAll}."
      },
      "name()": {
        "details": "See {IERC721Metadata-name}."
      },
      "owner()": {
        "details": "Returns the address of the current owner."
      },
      "ownerOf(uint256)": {
        "details": "See {IERC721-ownerOf}."
      },
      "renounceOwnership()": {
        "details": "Leaves the contract without owner. It will not be possible to call `onlyOwner` functions anymore. Can only be called by the current owner. NOTE: Renouncing ownership will leave the contract without an owner, thereby removing any functionality that is only available to the owner."
      },
      "safeTransferFrom(address,address,uint256)": {
        "details": "See {IERC721-safeTransferFrom}."
      },
      "safeTransferFrom(address,address,uint256,bytes)": {
        "details": "See {IERC721-safeTransferFrom}."
      },
      "setApprovalForAll(address,bool)": {
        "details": "See {IERC721-setApprovalForAll}."
      },
      "supportsInterface(bytes4)": {
        "details": "See {IERC165-supportsInterface}."
      },
      "symbol()": {
        "details": "See {IERC721Metadata-symbol}."
      },
      "tokenByIndex(uint256)": {
        "details": "See {IERC721Enumerable-tokenByIndex}."
      },
      "tokenOfOwnerByIndex(address,uint256)": {
        "details": "See {IERC721Enumerable-tokenOfOwnerByIndex}. This read function is O(collectionSize). If calling from a separate contract, be sure to test gas first. It may also degrade with extremely large collection sizes (e.g >> 10000), test for your use case."
      },
      "tokenURI(uint256)": {
        "details": "See {IERC721Metadata-tokenURI}."
      },
      "totalSupply()": {
        "details": "See {IERC721Enumerable-totalSupply}."
      },
      "transferFrom(address,address,uint256)": {
        "details": "See {IERC721-transferFrom}."
      },
      "transferOwnership(address)": {
        "details": "Transfers ownership of the contract to a new account (`newOwner`). Can only be called by the current owner."
      }
    },
    "version": 1
  },
  "userdoc": {
    "kind": "user",
    "methods": {},
    "version": 1
  }
}