{
  "contractName": "SmartContract",
  "abi": [
    {
      "inputs": [],
      "stateMutability": "nonpayable",
      "type": "constructor"
    },
    {
      "anonymous": false,
      "inputs": [
        {
          "indexed": true,
          "internalType": "address",
          "name": "owner",
          "type": "address"
        },
        {
          "indexed": true,
          "internalType": "address",
          "name": "approved",
          "type": "address"
        },
        {
          "indexed": true,
          "internalType": "uint256",
          "name": "tokenId",
          "type": "uint256"
        }
      ],
      "name": "Approval",
      "type": "event"
    },
    {
      "anonymous": false,
      "inputs": [
        {
          "indexed": true,
          "internalType": "address",
          "name": "owner",
          "type": "address"
        },
        {
          "indexed": true,
          "internalType": "address",
          "name": "operator",
          "type": "address"
        },
        {
          "indexed": false,
          "internalType": "bool",
          "name": "approved",
          "type": "bool"
        }
      ],
      "name": "ApprovalForAll",
      "type": "event"
    },
    {
      "anonymous": false,
      "inputs": [
        {
          "indexed": true,
          "internalType": "address",
          "name": "previousOwner",
          "type": "address"
        },
        {
          "indexed": true,
          "internalType": "address",
          "name": "newOwner",
          "type": "address"
        }
      ],
      "name": "OwnershipTransferred",
      "type": "event"
    },
    {
      "anonymous": false,
      "inputs": [
        {
          "indexed": true,
          "internalType": "address",
          "name": "from",
          "type": "address"
        },
        {
          "indexed": true,
          "internalType": "address",
          "name": "to",
          "type": "address"
        },
        {
          "indexed": true,
          "internalType": "uint256",
          "name": "tokenId",
          "type": "uint256"
        }
      ],
      "name": "Transfer",
      "type": "event"
    },
    {
      "inputs": [
        {
          "internalType": "address",
          "name": "to",
          "type": "address"
        },
        {
          "internalType": "uint256",
          "name": "tokenId",
          "type": "uint256"
        }
      ],
      "name": "approve",
      "outputs": [],
      "stateMutability": "nonpayable",
      "type": "function"
    },
    {
      "inputs": [
        {
          "internalType": "address",
          "name": "owner",
          "type": "address"
        }
      ],
      "name": "balanceOf",
      "outputs": [
        {
          "internalType": "uint256",
          "name": "",
          "type": "uint256"
        }
      ],
      "stateMutability": "view",
      "type": "function",
      "constant": true
    },
    {
      "inputs": [
        {
          "internalType": "uint256",
          "name": "tokenId",
          "type": "uint256"
        }
      ],
      "name": "getApproved",
      "outputs": [
        {
          "internalType": "address",
          "name": "",
          "type": "address"
        }
      ],
      "stateMutability": "view",
      "type": "function",
      "constant": true
    },
    {
      "inputs": [
        {
          "internalType": "address",
          "name": "owner",
          "type": "address"
        },
        {
          "internalType": "address",
          "name": "operator",
          "type": "address"
        }
      ],
      "name": "isApprovedForAll",
      "outputs": [
        {
          "internalType": "bool",
          "name": "",
          "type": "bool"
        }
      ],
      "stateMutability": "view",
      "type": "function",
      "constant": true
    },
    {
      "inputs": [],
      "name": "name",
      "outputs": [
        {
          "internalType": "string",
          "name": "",
          "type": "string"
        }
      ],
      "stateMutability": "view",
      "type": "function",
      "constant": true
    },
    {
      "inputs": [],
      "name": "owner",
      "outputs": [
        {
          "internalType": "address",
          "name": "",
          "type": "address"
        }
      ],
      "stateMutability": "view",
      "type": "function",
      "constant": true
    },
    {
      "inputs": [
        {
          "internalType": "uint256",
          "name": "tokenId",
          "type": "uint256"
        }
      ],
      "name": "ownerOf",
      "outputs": [
        {
          "internalType": "address",
          "name": "",
          "type": "address"
        }
      ],
      "stateMutability": "view",
      "type": "function",
      "constant": true
    },
    {
      "inputs": [],
      "name": "renounceOwnership",
      "outputs": [],
      "stateMutability": "nonpayable",
      "type": "function"
    },
    {
      "inputs": [
        {
          "internalType": "address",
          "name": "from",
          "type": "address"
        },
        {
          "internalType": "address",
          "name": "to",
          "type": "address"
        },
        {
          "internalType": "uint256",
          "name": "tokenId",
          "type": "uint256"
        }
      ],
      "name": "safeTransferFrom",
      "outputs": [],
      "stateMutability": "nonpayable",
      "type": "function"
    },
    {
      "inputs": [
        {
          "internalType": "address",
          "name": "from",
          "type": "address"
        },
        {
          "internalType": "address",
          "name": "to",
          "type": "address"
        },
        {
          "internalType": "uint256",
          "name": "tokenId",
          "type": "uint256"
        },
        {
          "internalType": "bytes",
          "name": "data",
          "type": "bytes"
        }
      ],
      "name": "safeTransferFrom",
      "outputs": [],
      "stateMutability": "nonpayable",
      "type": "function"
    },
    {
      "inputs": [
        {
          "internalType": "address",
          "name": "operator",
          "type": "address"
        },
        {
          "internalType": "bool",
          "name": "approved",
          "type": "bool"
        }
      ],
      "name": "setApprovalForAll",
      "outputs": [],
      "stateMutability": "nonpayable",
      "type": "function"
    },
    {
      "inputs": [
        {
          "internalType": "bytes4",
          "name": "interfaceId",
          "type": "bytes4"
        }
      ],
      "name": "supportsInterface",
      "outputs": [
        {
          "internalType": "bool",
          "name": "",
          "type": "bool"
        }
      ],
      "stateMutability": "view",
      "type": "function",
      "constant": true
    },
    {
      "inputs": [],
      "name": "symbol",
      "outputs": [
        {
          "internalType": "string",
          "name": "",
          "type": "string"
        }
      ],
      "stateMutability": "view",
      "type": "function",
      "constant": true
    },
    {
      "inputs": [
        {
          "internalType": "address",
          "name": "from",
          "type": "address"
        },
        {
          "internalType": "address",
          "name": "to",
          "type": "address"
        },
        {
          "internalType": "uint256",
          "name": "tokenId",
          "type": "uint256"
        }
      ],
      "name": "transferFrom",
      "outputs": [],
      "stateMutability": "nonpayable",
      "type": "function"
    },
    {
      "inputs": [
        {
          "internalType": "address",
          "name": "newOwner",
          "type": "address"
        }
      ],
      "name": "transferOwnership",
      "outputs": [],
      "stateMutability": "nonpayable",
      "type": "function"
    },
    {
      "inputs": [
        {
          "internalType": "uint256",
          "name": "tokenId",
          "type": "uint256"
        }
      ],
      "name": "tokenURI",
      "outputs": [
        {
          "internalType": "string",
          "name": "",
          "type": "string"
        }
      ],
      "stateMutability": "view",
      "type": "function",
      "constant": true
    },
    {
      "inputs": [],
      "name": "getAllTokens",
      "outputs": [
        {
          "components": [
            {
              "internalType": "uint256",
              "name": "id",
              "type": "uint256"
            },
            {
              "internalType": "string",
              "name": "uri",
              "type": "string"
            }
          ],
          "internalType": "struct SmartContract.RenderToken[]",
          "name": "",
          "type": "tuple[]"
        }
      ],
      "stateMutability": "view",
      "type": "function",
      "constant": true
    },
    {
      "inputs": [
        {
          "internalType": "address",
          "name": "recipient",
          "type": "address"
        },
        {
          "internalType": "string",
          "name": "uri",
          "type": "string"
        }
      ],
      "name": "mint",
      "outputs": [
        {
          "internalType": "uint256",
          "name": "",
          "type": "uint256"
        }
      ],
      "stateMutability": "nonpayable",
      "type": "function"
    }
  ],
  "bytecode": "0x60806040523480156200001157600080fd5b50604080518082018252600e81526d14db585c9d0810dbdb9d1c9858dd60921b602080830191825283518085019094526002845261534360f01b9084015281519192916200006291600091620000f1565b50805162000078906001906020840190620000f1565b505050620000956200008f6200009b60201b60201c565b6200009f565b620001d4565b3390565b600680546001600160a01b038381166001600160a01b0319831681179093556040519116919082907f8be0079c531659141344cd1fd0a4f28419497f9722a3daafe3b4186f6b6457e090600090a35050565b828054620000ff9062000197565b90600052602060002090601f0160209004810192826200012357600085556200016e565b82601f106200013e57805160ff19168380011785556200016e565b828001600101855582156200016e579182015b828111156200016e57825182559160200191906001019062000151565b506200017c92915062000180565b5090565b5b808211156200017c576000815560010162000181565b600281046001821680620001ac57607f821691505b60208210811415620001ce57634e487b7160e01b600052602260045260246000fd5b50919050565b61179080620001e46000396000f3fe608060405234801561001057600080fd5b50600436106101165760003560e01c8063715018a6116100a2578063b88d4fde11610071578063b88d4fde14610227578063c87b56dd1461023a578063d0def5211461024d578063e985e9c514610260578063f2fde38b1461027357610116565b8063715018a6146101fc5780638da5cb5b1461020457806395d89b411461020c578063a22cb4651461021457610116565b806323b872dd116100e957806323b872dd1461018e5780632a5c792a146101a157806342842e0e146101b65780636352211e146101c957806370a08231146101dc57610116565b806301ffc9a71461011b57806306fdde0314610144578063081812fc14610159578063095ea7b314610179575b600080fd5b61012e6101293660046111ab565b610286565b60405161013b9190611308565b60405180910390f35b61014c6102ce565b60405161013b9190611313565b61016c6101673660046111e3565b610360565b60405161013b9190611246565b61018c610187366004611182565b610387565b005b61018c61019c366004611035565b610428565b6101a9610460565b60405161013b9190611297565b61018c6101c4366004611035565b610566565b61016c6101d73660046111e3565b610581565b6101ef6101ea366004610fe9565b6105b5565b60405161013b919061168a565b61018c6105f9565b61016c61060d565b61014c61061c565b61018c6102223660046110e9565b61062b565b61018c610235366004611070565b610641565b61014c6102483660046111e3565b610680565b6101ef61025b366004611123565b610733565b61012e61026e366004611003565b610767565b61018c610281366004610fe9565b610795565b60006001600160e01b031982166380ac58cd60e01b14806102b757506001600160e01b03198216635b5e139f60e01b145b806102c657506102c6826107cf565b90505b919050565b6060600080546102dd906116c2565b80601f0160208091040260200160405190810160405280929190818152602001828054610309906116c2565b80156103565780601f1061032b57610100808354040283529160200191610356565b820191906000526020600020905b81548152906001019060200180831161033957829003601f168201915b5050505050905090565b600061036b826107e8565b506000908152600460205260409020546001600160a01b031690565b600061039282610581565b9050806001600160a01b0316836001600160a01b031614156103cf5760405162461bcd60e51b81526004016103c6906115ec565b60405180910390fd5b806001600160a01b03166103e161080d565b6001600160a01b031614806103fd57506103fd8161026e61080d565b6104195760405162461bcd60e51b81526004016103c69061162d565b6104238383610811565b505050565b61043961043361080d565b8261087f565b6104555760405162461bcd60e51b81526004016103c690611326565b6104238383836108de565b6060600061046e6007610a1b565b90506000808267ffffffffffffffff81111561049a57634e487b7160e01b600052604160045260246000fd5b6040519080825280602002602001820160405280156104d357816020015b6104c0610eaf565b8152602001906001900390816104b85790505b50905060005b8381101561055e576104ea83610a1f565b1561053e5760006104fa84610680565b905060405180604001604052808581526020018281525083858151811061053157634e487b7160e01b600052603260045260246000fd5b6020026020010181905250505b82610548816116fd565b9350508080610556906116fd565b9150506104d9565b509250505090565b61042383838360405180602001604052806000815250610641565b60008061058d83610a3c565b90506001600160a01b0381166102c65760405162461bcd60e51b81526004016103c6906115b5565b60006001600160a01b0382166105dd5760405162461bcd60e51b81526004016103c690611502565b506001600160a01b031660009081526003602052604090205490565b610601610a57565b61060b6000610a96565b565b6006546001600160a01b031690565b6060600180546102dd906116c2565b61063d61063661080d565b8383610ae8565b5050565b61065261064c61080d565b8361087f565b61066e5760405162461bcd60e51b81526004016103c690611326565b61067a84848484610b8b565b50505050565b606061068b82610a1f565b61069457600080fd5b600082815260086020526040812080546106ad906116c2565b80601f01602080910402602001604051908101604052809291908181526020018280546106d9906116c2565b80156107265780601f106106fb57610100808354040283529160200191610726565b820191906000526020600020905b81548152906001019060200180831161070957829003601f168201915b5093979650505050505050565b6000806107406007610a1b565b905061074c8482610bbe565b6107568184610cb3565b6107606007610cd2565b9392505050565b6001600160a01b03918216600090815260056020908152604080832093909416825291909152205460ff1690565b61079d610a57565b6001600160a01b0381166107c35760405162461bcd60e51b81526004016103c6906113c5565b6107cc81610a96565b50565b6001600160e01b031981166301ffc9a760e01b14919050565b6107f181610a1f565b6107cc5760405162461bcd60e51b81526004016103c6906115b5565b3390565b600081815260046020526040902080546001600160a01b0319166001600160a01b038416908117909155819061084682610581565b6001600160a01b03167f8c5be1e5ebec7d5bd14f71427d1e84f3dd0314c0f7b2291e5b200ac8c7c3b92560405160405180910390a45050565b60008061088b83610581565b9050806001600160a01b0316846001600160a01b031614806108b257506108b28185610767565b806108d65750836001600160a01b03166108cb84610360565b6001600160a01b0316145b949350505050565b826001600160a01b03166108f182610581565b6001600160a01b0316146109175760405162461bcd60e51b81526004016103c69061140b565b6001600160a01b03821661093d5760405162461bcd60e51b81526004016103c690611487565b61094a8383836001610cdb565b826001600160a01b031661095d82610581565b6001600160a01b0316146109835760405162461bcd60e51b81526004016103c69061140b565b600081815260046020908152604080832080546001600160a01b03199081169091556001600160a01b0387811680865260038552838620805460001901905590871680865283862080546001019055868652600290945282852080549092168417909155905184937fddf252ad1be2c89b69c2b068fc378daa952ba7f163c4a11628f55a4df523b3ef91a4610423838383600161067a565b5490565b600080610a2b83610a3c565b6001600160a01b0316141592915050565b6000908152600260205260409020546001600160a01b031690565b610a5f61080d565b6001600160a01b0316610a7061060d565b6001600160a01b03161461060b5760405162461bcd60e51b81526004016103c690611580565b600680546001600160a01b038381166001600160a01b0319831681179093556040519116919082907f8be0079c531659141344cd1fd0a4f28419497f9722a3daafe3b4186f6b6457e090600090a35050565b816001600160a01b0316836001600160a01b03161415610b1a5760405162461bcd60e51b81526004016103c6906114cb565b6001600160a01b0383811660008181526005602090815260408083209487168084529490915290819020805460ff1916851515179055517f17307eab39ab6107e8899845ad3d59bd9653f200f220920489ca2b5937696c3190610b7e908590611308565b60405180910390a3505050565b610b968484846108de565b610ba284848484610d63565b61067a5760405162461bcd60e51b81526004016103c690611373565b6001600160a01b038216610be45760405162461bcd60e51b81526004016103c69061154b565b610bed81610a1f565b15610c0a5760405162461bcd60e51b81526004016103c690611450565b610c18600083836001610cdb565b610c2181610a1f565b15610c3e5760405162461bcd60e51b81526004016103c690611450565b6001600160a01b038216600081815260036020908152604080832080546001019055848352600290915280822080546001600160a01b0319168417905551839291907fddf252ad1be2c89b69c2b068fc378daa952ba7f163c4a11628f55a4df523b3ef908290a461063d60008383600161067a565b6000828152600860209081526040909120825161042392840190610ec9565b80546001019055565b600181111561067a576001600160a01b03841615610d21576001600160a01b03841660009081526003602052604081208054839290610d1b9084906116ab565b90915550505b6001600160a01b0383161561067a576001600160a01b03831660009081526003602052604081208054839290610d58908490611693565b909155505050505050565b6000610d77846001600160a01b0316610e7e565b15610e7357836001600160a01b031663150b7a02610d9361080d565b8786866040518563ffffffff1660e01b8152600401610db5949392919061125a565b602060405180830381600087803b158015610dcf57600080fd5b505af1925050508015610dff575060408051601f3d908101601f19168201909252610dfc918101906111c7565b60015b610e59573d808015610e2d576040519150601f19603f3d011682016040523d82523d6000602084013e610e32565b606091505b508051610e515760405162461bcd60e51b81526004016103c690611373565b805181602001fd5b6001600160e01b031916630a85bd0160e11b1490506108d6565b506001949350505050565b600080826001600160a01b0316803b806020016040519081016040528181526000908060200190933c511192915050565b604051806040016040528060008152602001606081525090565b828054610ed5906116c2565b90600052602060002090601f016020900481019282610ef75760008555610f3d565b82601f10610f1057805160ff1916838001178555610f3d565b82800160010185558215610f3d579182015b82811115610f3d578251825591602001919060010190610f22565b50610f49929150610f4d565b5090565b5b80821115610f495760008155600101610f4e565b600067ffffffffffffffff80841115610f7d57610f7d61172e565b604051601f8501601f191681016020018281118282101715610fa157610fa161172e565b604052848152915081838501861015610fb957600080fd5b8484602083013760006020868301015250509392505050565b80356001600160a01b03811681146102c957600080fd5b600060208284031215610ffa578081fd5b61076082610fd2565b60008060408385031215611015578081fd5b61101e83610fd2565b915061102c60208401610fd2565b90509250929050565b600080600060608486031215611049578081fd5b61105284610fd2565b925061106060208501610fd2565b9150604084013590509250925092565b60008060008060808587031215611085578081fd5b61108e85610fd2565b935061109c60208601610fd2565b925060408501359150606085013567ffffffffffffffff8111156110be578182fd5b8501601f810187136110ce578182fd5b6110dd87823560208401610f62565b91505092959194509250565b600080604083850312156110fb578182fd5b61110483610fd2565b915060208301358015158114611118578182fd5b809150509250929050565b60008060408385031215611135578182fd5b61113e83610fd2565b9150602083013567ffffffffffffffff811115611159578182fd5b8301601f81018513611169578182fd5b61117885823560208401610f62565b9150509250929050565b60008060408385031215611194578182fd5b61119d83610fd2565b946020939093013593505050565b6000602082840312156111bc578081fd5b813561076081611744565b6000602082840312156111d8578081fd5b815161076081611744565b6000602082840312156111f4578081fd5b5035919050565b60008151808452815b8181101561122057602081850181015186830182015201611204565b818111156112315782602083870101525b50601f01601f19169290920160200192915050565b6001600160a01b0391909116815260200190565b6001600160a01b038581168252841660208201526040810183905260806060820181905260009061128d908301846111fb565b9695505050505050565b60208082528251828201819052600091906040908185019080840286018301878501865b838110156112fa57888303603f190185528151805184528701518784018790526112e7878501826111fb565b95880195935050908601906001016112bb565b509098975050505050505050565b901515815260200190565b60006020825261076060208301846111fb565b6020808252602d908201527f4552433732313a2063616c6c6572206973206e6f7420746f6b656e206f776e6560408201526c1c881bdc88185c1c1c9bdd9959609a1b606082015260800190565b60208082526032908201527f4552433732313a207472616e7366657220746f206e6f6e20455243373231526560408201527131b2b4bb32b91034b6b83632b6b2b73a32b960711b606082015260800190565b60208082526026908201527f4f776e61626c653a206e6577206f776e657220697320746865207a65726f206160408201526564647265737360d01b606082015260800190565b60208082526025908201527f4552433732313a207472616e736665722066726f6d20696e636f72726563742060408201526437bbb732b960d91b606082015260800190565b6020808252601c908201527f4552433732313a20746f6b656e20616c7265616479206d696e74656400000000604082015260600190565b60208082526024908201527f4552433732313a207472616e7366657220746f20746865207a65726f206164646040820152637265737360e01b606082015260800190565b60208082526019908201527f4552433732313a20617070726f766520746f2063616c6c657200000000000000604082015260600190565b60208082526029908201527f4552433732313a2061646472657373207a65726f206973206e6f7420612076616040820152683634b21037bbb732b960b91b606082015260800190565b6020808252818101527f4552433732313a206d696e7420746f20746865207a65726f2061646472657373604082015260600190565b6020808252818101527f4f776e61626c653a2063616c6c6572206973206e6f7420746865206f776e6572604082015260600190565b60208082526018908201527f4552433732313a20696e76616c696420746f6b656e2049440000000000000000604082015260600190565b60208082526021908201527f4552433732313a20617070726f76616c20746f2063757272656e74206f776e656040820152603960f91b606082015260800190565b6020808252603d908201527f4552433732313a20617070726f76652063616c6c6572206973206e6f7420746f60408201527f6b656e206f776e6572206f7220617070726f76656420666f7220616c6c000000606082015260800190565b90815260200190565b600082198211156116a6576116a6611718565b500190565b6000828210156116bd576116bd611718565b500390565b6002810460018216806116d657607f821691505b602082108114156116f757634e487b7160e01b600052602260045260246000fd5b50919050565b600060001982141561171157611711611718565b5060010190565b634e487b7160e01b600052601160045260246000fd5b634e487b7160e01b600052604160045260246000fd5b6001600160e01b0319811681146107cc57600080fdfea2646970667358221220b37df131b92f4a2836c32cb9e055b02344cac031545fe3e4aa636737745bcaa364736f6c63430008000033",
  "immutableReferences": {},
  "source": "// SPDX-License-Identifier: MIT\r\n\r\npragma solidity ^0.8.0;\r\n\r\nimport \"@openzeppelin/contracts/token/ERC721/ERC721.sol\";\r\nimport \"@openzeppelin/contracts/utils/Counters.sol\";\r\nimport \"@openzeppelin/contracts/access/Ownable.sol\";\r\n\r\ncontract SmartContract is ERC721, Ownable {\r\n    using Counters for Counters.Counter;\r\n    using Strings for uint256;\r\n    Counters.Counter _tokenIds;\r\n    mapping(uint256 => string) _tokenURIs;\r\n\r\n    struct RenderToken {\r\n        uint256 id;\r\n        string uri;\r\n    }\r\n\r\n    constructor() ERC721(\"Smart Contract\", \"SC\") {}\r\n\r\n    function _setTokenURI(uint256 tokenId, string memory _tokenURI) internal {\r\n        _tokenURIs[tokenId] = _tokenURI;\r\n    }\r\n\r\n    function tokenURI(uint256 tokenId) \r\n    public \r\n    view \r\n    virtual \r\n    override \r\n    returns(string memory) \r\n    {\r\n        require(_exists(tokenId));\r\n        string memory _tokenURI =  _tokenURIs[tokenId];\r\n        return  _tokenURI;\r\n    }\r\n\r\n    function getAllTokens() public view returns(RenderToken[] memory) {\r\n        uint256 lastestId = _tokenIds.current();\r\n        uint256 counter = 0;\r\n        RenderToken[] memory res = new RenderToken[](lastestId);\r\n        for(uint256 i = 0; i < lastestId; i++) {\r\n            if(_exists(counter)) {\r\n                string memory uri = tokenURI(counter);\r\n                res[counter] = RenderToken(counter, uri);\r\n            }\r\n            counter++;\r\n        }\r\n        return res;\r\n    }\r\n\r\n    function mint(address recipient, string memory uri) public returns(uint256) {\r\n        uint256 newId = _tokenIds.current();\r\n        _mint(recipient, newId);\r\n        _setTokenURI(newId, uri);\r\n        _tokenIds.increment();\r\n        return newId;\r\n    }\r\n}\r\n",
  "sourcePath": "C:\\Users\\zc24h\\Desktop\\dapp\\contracts\\SmartContract.sol",
  "compiler": {
    "name": "solc",
    "version": "0.8.0+commit.c7dfd78e.Emscripten.clang"
  },
  "schemaVersion": "3.4.11",
  "updatedAt": "2023-02-01T16:40:14.931Z",
  "networkType": "ethereum",
  "devdoc": {
    "kind": "dev",
    "methods": {
      "approve(address,uint256)": {
        "details": "See {IERC721-approve}."
      },
      "balanceOf(address)": {
        "details": "See {IERC721-balanceOf}."
      },
      "getApproved(uint256)": {
        "details": "See {IERC721-getApproved}."
      },
      "isApprovedForAll(address,address)": {
        "details": "See {IERC721-isApprovedForAll}."
      },
      "name()": {
        "details": "See {IERC721Metadata-name}."
      },
      "owner()": {
        "details": "Returns the address of the current owner."
      },
      "ownerOf(uint256)": {
        "details": "See {IERC721-ownerOf}."
      },
      "renounceOwnership()": {
        "details": "Leaves the contract without owner. It will not be possible to call `onlyOwner` functions anymore. Can only be called by the current owner. NOTE: Renouncing ownership will leave the contract without an owner, thereby removing any functionality that is only available to the owner."
      },
      "safeTransferFrom(address,address,uint256)": {
        "details": "See {IERC721-safeTransferFrom}."
      },
      "safeTransferFrom(address,address,uint256,bytes)": {
        "details": "See {IERC721-safeTransferFrom}."
      },
      "setApprovalForAll(address,bool)": {
        "details": "See {IERC721-setApprovalForAll}."
      },
      "supportsInterface(bytes4)": {
        "details": "See {IERC165-supportsInterface}."
      },
      "symbol()": {
        "details": "See {IERC721Metadata-symbol}."
      },
      "tokenURI(uint256)": {
        "details": "See {IERC721Metadata-tokenURI}."
      },
      "transferFrom(address,address,uint256)": {
        "details": "See {IERC721-transferFrom}."
      },
      "transferOwnership(address)": {
        "details": "Transfers ownership of the contract to a new account (`newOwner`). Can only be called by the current owner."
      }
    },
    "version": 1
  },
  "userdoc": {
    "kind": "user",
    "methods": {},
    "version": 1
  }
}